S00C0000636F64652E737265637D
S11300000C942A000C943F000C943F000C943F0085
S11300100C943F000C943F000C943F000C943F0060
S11300200C943F000C943F000C943F000C943F0050
S11300300C943F000C943F000C943F000C943F0040
S11300400C943F000C943F000C943F000C943F0030
S11300500C943F0011241FBECFE5D4E0DEBFCDBF1A
S113006010E0A0E6B0E0EAE3F2E002C005900D92F1
S1130070AE36B107D9F70E9441000C941B010C94D1
S1130080000014BA8FE00E94E3000E94BA0080E6E8
S113009090E00E94D30080E090E00895C29A00C0EE
S11300A0C2980895CF93C82F662311F0C09A01C057
S11300B0C098C198BC9ABD9ABE9ABF9AC798C69870
S11300C0C598C498CC230CF4C79AC6FDC69AC5FD3E
S11300D0C59AC4FDC49A0E944E00C798C698C59894
S11300E0C498C3FDC79AC2FDC69AC1FDC59AC0FD96
S11300F0C49A0E944E00C49AC59AC69AC79ACF91D0
S11301000895882311F0C09A01C0C098C19ABC9880
S1130110BD98BE98BF98C29A00C0B49902C080E04E
S113012001C080E1B5998062B6998064B79980680E
S1130130C29800C0C29A00C0B4998160B599826027
S1130140B6998460B7998860C298089580E00E9447
S113015081008823DCF300C080E00E9481000895C0
S1130160CF93C82F0E94A60060E08C2F0E945200FB
S1130170CF91089581E00E94B0000895CF93C82FD5
S11301800E94A600CA3049F4803410F480E401C00F
S113019080E080580E94B00004C061E08C2F0E946F
S11301A05200CF910895CF93DF93EC012196FC0187
S11301B08081882329F00E94BE0089918111FBCFA0
S11301C0DF91CF910895CF93C82FB89AB99ABA9A6C
S11301D0BC9ABD9ABE9ABF9AE0EAFFE03197F1F764
S11301E0C59AC49A0E944E00E0EEF4E03197F1F70C
S11301F00E944E00E0E1F0E03197F1F70E944E00DA
S1130200E0E1F0E03197F1F7C4980E944E00E0E19C
S1130210F0E03197F1F788E20E94B00088E00E9494
S1130220B0000E94BA0086E00E94B0008C2F0E94A9
S10D0230B000CF910895F894FFCFB9
S111023A6465726A796867006865726F000017
S9030000FC
